:020000041000EA
:1000000000B5324B212058609868022188439860DF
:10001000D860186158612E4B002199600221596106
:100020000121F02299502B49196001219960352056
:1000300000F044F80222904214D00621196600F024
:1000400034F8196E01211966002018661A6600F04E
:100050002CF8196E196E196E052000F02FF8012189
:100060000842F9D1002199601B49196000215960AB
:100070001A491B48016001219960EB211966A021F2
:10008000196600F012F800219960164914480160C1
:100090000121996001BC002800D000471248134993
:1000A000086003C880F30888084703B5996A0420EC
:1000B0000142FBD001200142F8D103BD02B5186610
:1000C0001866FFF7F2FF186E186E02BD00000240BE
:1000D000000000180000070000035F00212200005C
:1000E000F4000018222000A00001001008ED00E03C
:1000F00000000000000000000000000074B24E7A12
:1001000000200420F7010010CB010010CD010010E9
:10011000C9010010C9010010C9010010C901001077
:10012000C9010010C9010010C9010010CF01001061
:10013000C9010010C9010010D1010010D301001045
:10014000C1010010C1010010C1010010C101001067
:10015000C1010010C1010010C1010010C101001057
:10016000C1010010C1010010C1010010C101001047
:10017000C1010010C1010010C1010010C101001037
:10018000C1010010C1010010C1010010C101001027
:10019000C1010010C1010010C1010010C101001017
:1001A000C1010010C1010010C1010010C101001007
:1001B000C1010010C1010010C1010010C1010010F7
:1001C000EFF30580103800BE00BE00BE00BE00BECA
:1001D00000BE00BEF2EB88711C6B00103C6B00107F
:1001E0003802001090A31AE700201E49086006C8D4
:1001F00081F3088810471C480068002801D00020BF
:10020000F3E70DA40ECC002902D000F012F8F9E7B4
:100210001649174A002000E001C19142FCD115495E
:100220008847154988471549884700BEFDE701C939
:1002300001C29A42FBD370473C6B0010C000002003
:1002400080100020FC7A0010000004200000042030
:10025000FC7A0010001004200010042000000000B0
:100260007047000008ED00E0000000D08010002082
:100270009C1C0020153C0010810200100D3C001059
:10028000F0B5DE464E4645465746E0B595B003F01C
:10029000F9FDE1215948490201F06EF802210020E0
:1002A00000F0C4F80221012000F0C0F806F042F886
:1002B0001F211A2000F0BAF8002200211A2000F0B5
:1002C000CFF800211A2000F0DFF8E0224C4BD201D9
:1002D0001B684C4813404C4A0D25136000F0D0FEBB
:1002E0004A4803F01DFE4D2000212022484B494C76
:1002F000039300269E5F414B002966D186426BD056
:1003000099690A42FCD11860217801340D394842BC
:1003100041412078C9B20028EED13F4B02933F4BB8
:100320009B4604AB9A4604239946002380250A265F
:1003300098463B4F324C6D004B463B6023682B4246
:10034000FCD063680A201B041B0C013E984400F09B
:1003500097FE002EF0D10A21404601F0E5FB04048F
:100360003048240C6043304901F0DEFB05000200F8
:100370002100029803F058FE23005A4640215046BF
:10038000009503F001FC53461C78002C18D0504611
:1003900000212022039B0D3600255D5F174B0029AD
:1003A0001FD1A54224D099690A42FCD11C60017872
:1003B00001300D394C4261410478C9B2002CEED1B4
:1003C000FA20800000F05CFEAFE799690A429AD0FB
:1003D00099690A42F9D196E799690A42FCD11D60F0
:1003E0008EE799690A42E1D099690A42F9D1DDE7BD
:1003F00099690A42FCD11E60D5E7C046004003401F
:1004000000C00440B80B000000D00440C8640010D5
:100410007C1C0020D4640010E4640010006500100F
:1004200000E00440E40C0000FF0F0000094A8300D4
:100430009A1810B514684022544080322240064C6D
:10044000C000A44663441A60044B9C46604441606B
:1004500010BDC04604C0014004D00140004001402E
:10046000074B8000C3181B68C90092000A435A401A
:100470000C231340034A9446604403607047C0460F
:1004800004C0014004D001408000002905D0064B83
:100490009C464023604403607047044B9C464023C5
:1004A00060440360F8E7C04604E0014004F0014006
:1004B0008023DB051868000F7047C0460FB400B5F5
:1004C000084883B003F02CFD049B002B07D005A93E
:1004D0001800019103F07EFB034803F021FD012089
:1004E00003F090FB186500101465001070B5EFF371
:1004F000108C72B60D4D2B68002BFCD0BFF35F8FB4
:100500000724CB08C618C05C01230C40A3401C0084
:100510000440034207D118433070BFF35F8F2C6053
:100520008CF3108870BD1000FFF7C8FF2C0100D0BD
:10053000F8B54746CE46884680B5EFF3108C72B6C4
:100540001C4D2C68002CFCD0BFF35F8F9A4222D840
:1005500007210126894602E00132934218D34D4615
:1005600037001540AF40D4080119045D2742F3D18C
:1005700010003C430C70BFF35F8F00220D4B1A60DC
:100580008CF3108800280EDBC0BCB946B046F8BD1D
:1005900001204042EFE7BFF35F8F00232B608CF315
:1005A0001088012040424346002BEDD00898FFF709
:1005B00085FFC0462C0100D0044A1078431CDBB2F2
:1005C000172B00D9102313707047C046980F0020D6
:1005D00010B5064B064C82B00100009318221F2371
:1005E0002000FFF7A5FF02B010BDC046286500102F
:1005F000DC1600200021044B044ABFF35F8F02C3C6
:100600009342FAD17047C046000100D0800100D06B
:10061000054B064A1360064A136053609360D3602B
:1006200013615361936170478080808000E400E033
:1006300004E400E01F2318401E3B8340002905D03E
:10064000C021044A49005350136070478022014979
:100650008B50FAE700E100E001228240034B1B6867
:1006600013405A1E9341D8B27047C04600E100E0E3
:1006700001238340014A13607047C04600E200E056
:10068000064B10309B688000C358054A00209B1A17
:1006900047229A424041C0B27047C04600ED00E098
:1006A0009C0F002010B5EFF3108C72B60F4A136840
:1006B000002BFCD0BFF35F8F0D4B10309B68800088
:1006C0001B580C4A934201D099420CD1084B9B68AD
:1006D0001950BFF35F8FBFF35F8F0022034B1A6087
:1006E0008CF3108810BD01F0CDF8C046240100D075
:1006F00000ED00E0C1010010F0B557464E46DE4661
:100700004546E0B58A4685B00600EFF3108972B61B
:1007100063490B68002BFCD0BFF35F8F0021614B56
:1007200059568C46002900DAB7E049000D005E4CAE
:100730006544AD0067190291B979103619705B4BA9
:10074000B1009B6801915B58191B472935D80121DD
:1007500018008843C679964200D875E09B46029BF4
:10076000019E9846039507E04D006D18AD00651990
:10077000EB7993424ED92800062141560029F3DA3D
:1007800045465B4601960295061D494D0396039E1C
:10079000043FBF1B3F05474E7F0D374366468780AA
:1007A00086710298604480002418E27152464248E3
:1007B000A5802060A171A26018E040498B4200D062
:1007C0006BE03F4B3B4963533E4B0235043B65199D
:1007D0005B1B1B055B0D0B437B803B4BFA71BB80A6
:1007E000FF23BB715346BB6001233B432F4A019952
:1007F00092685350BFF35F8FBFF35F8F0022284B87
:100800001A6089F3108805B0F0BCBB46B246A94611
:10081000A046F0BD01964646029686885B46760560
:10082000B346061D039D03965E463615B346061D68
:10083000B046C3445E4604356519751BE0262D0598
:100840006D0D36023543A2E7204BFA719C4603003A
:1008500066461B1B5B415E43360DB446AE1CB0467C
:10086000A0444646164B6353164B0435043B9B1B72
:100870001B05104E5B0D33437B806319C31A043B89
:100880001B055B0D3343BB806346BB715346BB60A6
:10089000094B03603B000B43A8E700F0F3FFC046A1
:1008A000240100D0951C00209C0F002000ED00E0EA
:1008B00001BD000000E0FFFF01488047C1010010BA
:1008C00000A1FFFFE40F002001BDFFFFAAAA000066
:1008D00070B501240443EFF30581EFF3108C72B679
:1008E000274A1368002BFCD0BFF35F8F254A050011
:1008F000254BAD1A6D416B431B0D244D8900AE682D
:100900005BB27658A64224D006215156994224D093
:100910001221515699422AD01E215156994228D06F
:100920002A215156994226D036215156994224D037
:10093000422151560524994210D0154A117813705E
:100940008171BFF35F8F00220D4B1A608CF310880A
:1009500070BDAA680F4C5450EFE7002461000919DC
:1009600089005218FF2191710B499180E5E701241C
:10097000F4E70224F2E70324F0E70424EEE7C0469C
:10098000240100D09C0F0020AAAA000000ED00E086
:10099000951C0020C101001001BDFFFF10B5084BE0
:1009A000084C82B001000093002205232000FFF7CD
:1009B000BFFD002801DB1F23181A02B010BDC0467E
:1009C00044650010991C0020024B9C46614489003C
:1009D000016070474000003470B5114C114DAC42BD
:1009E0000FD2FF262368002B0CD0FFF7E5FD010096
:1009F0002000FFF7E9FFA680BFF35F8F0834AC4209
:100A0000F0D370BDFFF7D8FD01002000FFF7DCFF39
:100A10002671BFF35F8F0834AC42E3D3F1E7C046E1
:100A2000781000208010002010B50400FFF7C4FDEE
:100A300001002000FFF7C8FFFF232371BFF35F8F82
:100A400010BDC04610B504000120FFF7C1FD034BE7
:100A5000C3189B002360BFF35F8F10BD40000034BC
:100A6000034B9C46614489000160BFF35F8F704770
:100A7000400000340A4B1968EFF3108072B60A6820
:100A8000002AFCD0BFF35F8F1B68BFF35F8F00228B
:100A90001A6080F3108840BF002000217047C046D4
:100AA000701C0020F0B5DE4657464E464546E0B580
:100AB00087B0EFF30583032201251A40954091008A
:100AC0008846A946B34B03925C58B34B1D60B34BA9
:100AD00004934B46B24843630823E55E002D37DAA2
:100AE000A3881BB2002B00DBADE0A379002B00D064
:100AF000EEE00823E05E002820DB430062691B185B
:100B0000DB00D3189E68DD68731C00D111E1A44896
:100B100001004144826A0B69B71A9B1A9F4215D3A0
:100B20000123026A039883401A420FD09C4800F0C8
:100B3000CDFB8D4202DCCCD18642CAD940BF07B082
:100B4000F0BCBB46B246A946A046F0BD0E61EDE73B
:100B500062696B0092465B19DB009A4453469E68BB
:100B6000DF6800F0B3FB8F42BADC00D103E1002F55
:100B700000DAE8E05246534652691B699346049AEC
:100B8000934200D1D9E052460821605E52880004A9
:100B9000594610439847009001910099019A0B0023
:100BA0001000134300D1CEE013000A00B61A9F4193
:100BB000002806DB7A4800F089FB009E019F36186A
:100BC0004F4153469E60DF6000229A5E002A00DAA1
:100BD00086E7530099186069C900411802938B6831
:100BE000C9689B46B94200DD7AE702D1B34200D919
:100BF00076E708239C46A444059565462281A446D1
:100C0000029B2C0006E053009918C90041188D681A
:100C1000C968AB469B18DB00C318B94206DC00D19B
:100C2000B3E01C000023E25E002AECDA23006446F5
:100C30009C4653461A806346059D1D80A3881BB2BF
:100C4000002B00DA51E72269EFF3108172B61368C6
:100C5000002BFCD0BFF35F8F0123A7885B42A380EA
:100C60003FB22369BFF35F8F00221A6081F31088BF
:100C7000002F00DA39E72300083322009A4666691C
:100C80007B00DB19DB00F318996850468C4608247A
:100C9000115FDD68002910DB029306E0AB4244D00F
:100CA0000023E15E2000002906DB4C006418E4000C
:100CB0003419E368AB42F1DD029B078000201F5E20
:100CC0001980002FDCDA1400A379002B00D110E783
:100CD0000023A37126000823E15E08364B1C00D1D7
:100CE0002CE70800A246656902E03E004B1C1AD0C2
:100CF0004B005B18DB00EF180A008C46E95E7B882E
:100D00001BB2002BF1DA01235B42DC17BB60FC60F5
:100D1000824205D0534631801B893B8053461A815D
:100D200060464B1CE4D15446E5E6A3686345B7D959
:100D3000C2E76B1C00D0EAE6F8E65B4658461B6942
:100D4000984700281BD153461B8822692381EFF363
:100D5000108372B611680029FCD0BFF35F8F514633
:100D600062880A8022696580BFF35F8F002111606D
:100D700083F31088B4E6864200D8F8E6B0E65B4616
:100D80001A685B680092019307E7B34500D848E70B
:100D90004CE7C046541B00203C700540A50A0010DB
:100DA0000040054070B52E4C2569002D04D00A2165
:100DB0002C48FFF709FE70BD2B4E0321300000F0D8
:100DC0007BFAE660FFF7F8FB284B03229C46D02312
:100DD00022701B061B6801216370254B6044A360D1
:100DE0000F23800020610220638063694942A18053
:100DF00019800231198647311D83585218315A52D1
:100E000075325C39995218320131995218320131D8
:100E10009952183201319952083518329D520231D7
:100E200018329952183201319952183201319952BF
:100E30001832013199521832013199521832013168
:100E400099520C4B0C49DC6001303562FFF72AFCEB
:100E500001210320FFF7EEFB084B1D60A7E7C0460A
:100E600008100020701C00200040054040000034A5
:100E7000FFFF1000541B0020A50A00103860054039
:100E80000048704708100020F8B51F0008AB1B7819
:100E900004001600002B08D100F020FA32003B00BD
:100EA000121A8B41002B00DA52E02269EFF3108016
:100EB00072B61368002BFCD0BFF35F8F0223E15E94
:100EC00063694A005218D2009B182269002936DB58
:100ED0001D886580BFF35F8F0025156080F3108843
:100EE000069A9E60DF601A61079A5A615A88013239
:100EF0005204520C101C002A1FD082B258800804E1
:100F000010432669EFF3108772B63268002AFCD0CE
:100F1000BFF35F8FA2881A80A1802369BFF35F8F20
:100F200000221A6087F310880A4923788C46013220
:100F30009A40E36863441A60F8BD0120DDE7BFF31F
:100F40005F8F0023136080F3108801204042F3E795
:100F50000020F1E73C20000070B501000469EFF3C8
:100F6000108C72B620680028FCD0BFF35F8F02207F
:100F70000D5E4C6968004019C00024180869002DF6
:100F800036DB26884E80BFF35F8F002606608CF329
:100F90001088E36063880498013320615B0405983E
:100FA0005B0CA26060611A1C002B1FD093B2280456
:100FB000628018430A69EFF3108C72B61368002B35
:100FC000FCD0BFF35F8F8B8823808D800B69BFF3CC
:100FD0005F8F00221A608CF310880B7801329A40E0
:100FE000CB6808498C4663441A6070BD0122DDE776
:100FF000BFF35F8F002303608CF310880120404211
:10100000F3E7C0463C20000010B543890A14934220
:101010001ADD53009B184269DB00D3180469EFF313
:10102000108C72B62268002AFCD0BFF35F8F5A88FA
:10103000090494B2090C8A4208D00369BFF35F8F98
:1010400000221A608CF31088002010BD802212024A
:1010500014435C80012302698371BFF35F8F002119
:1010600011608CF31088044902788C469340C26862
:10107000012062441360E8E73C200000407870479C
:10108000F0B5C64600B582B0040000F027F9FA2298
:1010900006000F00200000230021920001F0BEF89E
:1010A0008019794104000D1E02DA01242E4D64429C
:1010B00006267642F71736196F41AF4214D811D081
:1010C00000F00CF932003B00121A8B41002B15DCAA
:1010D000002B46D02000290000F03EF902B080BC71
:1010E000B846F0BDA642EBD90026002700F0F6F87E
:1010F00032003B00121A8B41002BE9DD00F0EEF8C4
:1011000032003B00121A8B41002B0ADB00230193B3
:10111000164B3200009316483B00FFF71DFF0130CD
:10112000D8D000233900B0469C46124A1248536A70
:10113000994204D8966A4645CCD29942CAD10668EB
:10114000EFF3108772B63368002BFCD0BFF35F8FCC
:101150000368BFF35F8F66461E6087F3108820BF69
:10116000E5E7002AB6D0C9E7FFFFFF7F750A001048
:101170000810002000400540701C0020F0B54546D6
:10118000DE4657464E46E0B504000D0085B0EFF34D
:1011900005838946002B37D1434B9A461B6883420F
:1011A0002DD0424B9B46DB6898465B461B784046F9
:1011B000039300F08BF84246039B060004339B0028
:1011C0009B580F001B1A290020000022801BB941E8
:1011D0008A4228DC25D020BF354B586A48452ED39B
:1011E000401B9A6A431E98410023A2425B41184368
:1011F00005B0F0BCBB46B246A946A046F0BD53467A
:101200005B688B42CDD1E6E7294900204B6AAB42AF
:10121000EED38A6A5B1B591E8B41A24240411843A0
:10122000E6E78342D7D900F059F822002B00121AC2
:101230008B41002B05DA1E4A536A4B452AD2002007
:10124000D6E7002301931B4B2200009358462B0046
:10125000FFF782FE011EEEDD53461C605D60144BFD
:101260005A6A4A4514D39B6AA3420FD35846FFF7E4
:10127000CBFE0F4A0020536A4B45B9D3926A5B1BE1
:10128000591E8B41A24240411843B1E74A45EDD176
:1012900020BFEBE70020926A5B1BA24240415A1E2E
:1012A00093411843A4E7C046001000200810002016
:1012B00000400540750A001010B5024A0248FFF7C9
:1012C00015F910BD60650010E01600200300416AAA
:1012D0000A00986A596A8A42FAD17047034B596AE0
:1012E0000A00986A596A9142FAD170470040054055
:1012F00070B504000D00174A536A1900966A536AC4
:101300008B42FAD13000190024184D41AB4216D857
:1013100013D0104B2A005B6A9D4203D90D494B6ADA
:101320009342FCD3934207D10A4A02E0516A9942A0
:1013300002D1916AA142F9D370BDA642E9D9054B09
:101340005B6A1C005A1CEFD0012201246442E5179D
:101350005242E3E700400540064A536A9942FCD8EE
:1013600007D1044B02E05A6A914202D19A6A904234
:10137000F9D8704700400540F8B5040006200D007C
:1013800000F078F9002844D0374B3849E3185A1E4A
:1013900093418022120494465B429B0D344A9B0584
:1013A00063441360334A136018000A689043FBD10A
:1013B0002D4B314AE31859424B4180215B004900D3
:1013C0000620995200F056F92900C00000F0ACFB4D
:1013D0000130C3091ED1402701226262A362266B3D
:1013E000F30722D4E36A254B0620E51800232B607F
:1013F000266300F03FF93900800000F095FB702370
:10140000E26A5A400E3313402B601D4B23630323C3
:10141000A364F8BD1B4A93421ED900231A4A1B4FEE
:101420006262A362266BF307DCD5194B144AE318FA
:101430001A60656AA36A0620AD01ED1800F01AF97A
:10144000144900F071FBAD020100280000F06CFBB4
:101450000021FFF74DFFC5E74006800E9F011A00EF
:101460003F180300B9E7C0460080FCBF08C0004039
:1014700000E0004000F000407C1C00202C10000028
:1014800001030000FEFF0000FFFF0000C0FF3F005F
:10149000303000004E0E0000F8B5DE464E4657468E
:1014A0004546E0B58B4605000A991800160000F085
:1014B0003BFB0A9B6C001F02324B64199C46A40044
:1014C0006444636881469F4200D967602B1FDBB28A
:1014D0009846012B30D9C02380229B01E3181201CA
:1014E0001A60294BAD0059599A4600291BD1730146
:1014F000E026226853401E40802342465B01E318E9
:101500001E60012A30D9802380229B01E31812013A
:101510001A6053464A4667605A51F0BCBB46B24611
:10152000A946A046F8BD586900F0FEFA0130430014
:101530001B18033BFDD2DAE75B46012BCBD1C0235E
:1015400003229B01E3181A60023AA3681A42FCD0F6
:101550007301E0262268AD0053401E4080230A4AF2
:101560005B019246E3181E605A46216851400322EF
:101570000A401A6001225B469A40A3681A42FCD0D6
:10158000C1E7C04600800040E4160020F0B54646A2
:101590004F46D646C0B51F00344B44009C46241825
:1015A000A4006444636888461600FF2B02D8802399
:1015B0005B006360031FDBB29A46012B30D9C02366
:1015C00080229B01E31812011A60294B85005959AA
:1015D000994600291BD17301E026226853401E4022
:1015E000802352465B01E3181E60012A30D9802314
:1015F00080229B01E31812011A6080235B00636064
:101600004B465F51E0BCBA46B146A846F0BD5869AA
:1016100000F08AFA013043001B18033BFDD2DAE7E1
:101620004346012BCBD1C02303229B01E3181A6050
:10163000023AA3681A42FCD07301E02622688500B2
:1016400053401E4080230A4A5B019146E3181E6006
:1016500042462168514003220A401A600123424653
:101660009340A2681342FCD0C1E7C046008000400E
:10167000E4160020014B8000C0587047E41600209B
:10168000F8B5040021481E0017000D0000F04CFAC8
:101690000100380000F048FA069B36041B031E4385
:1016A0002368002B20DB1A4B1A49E3185A1E93417A
:1016B0008022920194465B421B0B174A1B03634432
:1016C0001360164A13601F000A689743FBD1144B3E
:1016D0002560E2182123A06013602368002BFCDA48
:1016E0000823E6601360F8BD3F2322681340AB4235
:1016F000D9D1A3681B051B0D8342D4D1EE22E36828
:10170000D2021340B342CED1EDE7C046001BB70072
:101710000040FDBF08C0004000E0004000F0004075
:101720000430000010B580241C4BE4051C60002828
:101730001AD001231A4C18431A4BDC611A4C44404E
:101740001C62596298628021144BC90519601748C0
:1017500017490860E021C9041960002A07D18022D6
:10176000144B12061A6010BD0E4BD861EBE7530103
:101770009B1A9B009A18802312015B049A4209D29B
:1017800013000D490B60074B5A608022094BD205AC
:101790001A60E8E7094B1A00F3E7C04600B00540BD
:1017A000D3C007B0008005402D3FF84FFCFF01007B
:1017B0000820014000A00540441B0020FFFFFF005F
:1017C0008023024A9B000B43D36270470080054090
:1017D000002310B50100988A1B8B984710BDC046A6
:1017E000162310B50100188802331B88984710BDD6
:1017F000F8B54746CE4680B50F1E18D0142399463B
:10180000043304000025012698464B4618884346B9
:1018100021681B88984701C4431E98410135064042
:10182000AF42F2D13000C0BCB946B046F8BD012687
:10183000F8E7C046002370B504000D00988A0549FA
:101840001B8B984703000020002C01DB0130A040D7
:101850002900984755420000AA23064A1B0113603D
:101860008D235B00D3600449044B19605368002B3F
:10187000FCDA70470040024000B0FA00006002400D
:101880007047C04610B50148FEF718FE8465001089
:1018900070B5074D074EB54209D20024013E761BB4
:1018A000B60808CD984723000134B342F9D170BD82
:1018B00088640010C4640010054B064A06491A608B
:1018C000064A074B1A6010000B689843FBD170471B
:1018D00000E00040BFCDFBFE08C00040FE7F3C00A2
:1018E00000F00040044BDB6C002B03D18022034B43
:1018F000D2021A607047C046000011504C201150AF
:10190000044A054B1A60054A1368DB018033FBD19A
:101910007047C046FFFFFF0100F0004008C00040D4
:101920004022034B9A675A671A67DA667047C046C7
:1019300000F0014010B5FEF75DFE10BDF8B5274977
:10194000274C284D641AA4082200302C00D93022DC
:101950002800920000F0BEFC2F2C3BD830202F2115
:10196000A700EB195B07204A001BDB0F091B0529A9
:1019700016D92600002B01D0EA51661CC01AE318C4
:101980009B004108EB18C900C9181A605A60083357
:101990008B42FAD1012303421CD098438419A7003B
:1019A000EA51631C2F2C15D09B00EA50A31C2E2C4F
:1019B00010D09B00EA50E31C2D2C0BD09B00EA506A
:1019C000231D2C2C06D09B00EA50631D2B2C01D02C
:1019D0009B00EA50054B9D60F8BDC0460001001019
:1019E000C001001000000020C101001000ED00E067
:1019F000002310B5294C82B0A367FFF72DFF012209
:101A0000274B1A60636C012BFCD10322254B1A6013
:101A1000224A936B012BFCD1013300930121224A0E
:101A200022480433FFF72CFE052301210093204AAE
:101A30002048FFF725FE0022022104201E4BFFF75D
:101A4000A5FD0022012105201C4BFFF79FFD002270
:101A5000002107201A4BFFF799FD002200210820E2
:101A6000174BFFF793FD8023DB000093002200213A
:101A70000920134BFFF710FD0022104B0021062018
:101A8000FFF784FD0420FFF7F5FD0E4900F04CF848
:101A900001000020FFF794FE02B010BD008000405E
:101AA0003CB0004030B00040002F68590080024038
:101AB000008C864700C00240001BB70040597307E6
:101AC000006CDC0240420F0001480421014B184722
:101AD00020100020F1170010124A936F9B0815D2B6
:101AE0009066D166002905D0FFE7FFE7FFE7516F59
:101AF000106F704704B580210906C21751400028B5
:101B000000D0C84304F088FC002104BDF0B5146E79
:101B1000556E576F166FFFF7E3FF146655665767EC
:101B20001667F0BD000000D0114A936F9B0813D2D6
:101B300010665166002905D0FFE7FFE7FFE7516F08
:101B4000106F704704B5002801D00020C04304F096
:101B500063FC002104BDC046F0B5146E556E576F8E
:101B6000166FFFF7E5FF1466556657671667F0BDF9
:101B7000000000D094464A4A926F9208624601D211
:101B800028E0C046F0B5464E346E756E776F366FFE
:101B900000F020F89446424A146655665767166767
:101BA0006246F0BD94463E4A926F9208624601D268
:101BB00054E0C046F0B53A4E346E756E776F366FAE
:101BC00000F04CF89446364A146655665767166717
:101BD0006246F0BD002B24DB11D000293EDA00B5AF
:101BE000C943404200D1013100F038F8C9434042B6
:101BF00000D10131DB43524200D1013300BD002A44
:101C0000EBD1002801D1002905D00020C90FC90758
:101C100001D1C043410800B504F0F6FB00220023C7
:101C200000BD00B500290ADBDB43524200D101337D
:101C300000F014F8C943404200D1013100BDC9434E
:101C4000404200D10131DB43524200D1013300F068
:101C500005F8DB43524200D1013300BD002923D1F6
:101C6000002B18D1002A0CD0BC460D4F38667A667E
:101C700000210023FFE7FFE7FFE77A6F386F674631
:101C80007047002801D00748010000B504F0BCFBF4
:101C90000022002300BD02000B000020002170473D
:101CA000000000D0FFFFFFFF002B00D0BFE0130CAF
:101CB00028D1002AE7D080B4114F39667A66FFE751
:101CC000FFE730B4040C7B6F396F1B0423433B6682
:101CD0007A66FFE7FFE7FFE7C04684B27B6F3D6FA0
:101CE0001B0423433B667A66FFE7FFE7C0460023F9
:101CF0002C042D0C7A6F386F00196941B0BC704705
:101D0000000000D0F0B594460025140E01D1120257
:101D10000835140F01D112010435940F01D192003E
:101D20000235D40F01D152000135D40B0134254FB7
:101D30007C66254C3C660E0C93B2FFE7FFE7FFE79D
:101D40003C6F6643360C7703BE467343DF0B5B0480
:101D5000C01AB941130C7343DB18C91ACE08664385
:101D6000360CB64493B273431F0F1B01C01AB9411E
:101D7000130C73431F0B1B05C01AB941860D8F024C
:101D80003E436643360C092D24DB520A7243801A07
:101D90007703460A6643360C16235B1BDE40DF40A2
:101DA000BF1964466643821B704604350633010042
:101DB000D940A840C01900D30131A24206D2002365
:101DC000F0BD0000000000D0FFFFFFFF121B01303C
:101DD000F3D3F1E709277F1BFE406446A2B27243AA
:101DE000801A00D20139220C7243130C1204821A99
:101DF00099410B007046043513370100F940A840A3
:101E0000801900D30131002B02D1A2420AD2F0BDC9
:101E1000013000D30131121BFAD2013BF8D1A242AA
:101E200000D2F0BD013000D30131121BF7E7F0B54D
:101E30001C0C00D080E00CB400251C0A04D11B024D
:101E4000160E3343120208351C0B04D11B01160F6A
:101E50003343120104359C0B04D19B00960F33438E
:101E600092000235DC0B02D192185B4101351C0057
:101E7000971864410134464F7C66464C3C660E0C14
:101E8000FFE7FFE7FFE7C0463C6F6643360C77038A
:101E9000BE4697B27743C01B00D20139C01B00D2A7
:101EA00001399FB27743C91BC91B170C77437E04C6
:101EB000FF0B801BB941CE086643360C0C2D33DB7B
:101EC000B644120B1F053A431B0B97B27743C01B56
:101ED00000D201399FB27743C91B170C77433E04E8
:101EE0003F0C801BB941860D8F023E436643292774
:101EF0007F1BFE400C3D7746AF40BF1930BCA2B2FD
:101F0000ABB272437343801A9941220C7243130C93
:101F10001204801A994102000B000137001BA941ED
:101F2000F9D2781E0021F0BD0C277F1BFE407746BA
:101F30007F0BAF40FF19E0E700245D1C07D0144F72
:101F40007D663966FFE7FFE7FFE7FFE73C6F95B285
:101F50009EB265436643401BB141150C1E0C6543A0
:101F6000664336042F0C3E432D04401BB141994279
:101F700004D202000B0020000021F0BD01D19042EC
:101F8000F7D3801A994101349942F2D3F6E7000061
:101F9000000000D0FFFFFFFF48404140484018B418
:101FA000134B5B68019308BD18B4114B1B68019378
:101FB00008BD94460F4A926F920805D2624618B443
:101FC0000B4BDB68019308BD0A4AF0B5146E556EE1
:101FD000576F166F6246FFF7F2FF064A14665566A2
:101FE00057671667F0BD18B4014B9B68019308BD95
:101FF00008120020000000D0FFB550404240504081
:1020000059404B40594000E0FFB5154F4C00640D5E
:1020100003D0BC4204D10C0314D80020090D0905DB
:102020005C00640D03D0BC4204D11C030AD800221A
:102030001B0D1B0501264B4009D44B4003D58B4299
:1020400000D18242FFBD9942FCD19042FFBD0B43BB
:10205000DB1803431343F5D0C9434918FFBD000003
:10206000FF07000000B5FFF7CFFF804100BDC0466D
:1020700000B5FFF7C9FF01D9002000BD012000BD58
:1020800000B5FFF7B9FF01D9002000BD012000BD58
:1020900000B5FFF7B1FF804100BD012040054A00B7
:1020A000121804D85A00121801D8002070470120D5
:1020B000704700000021002805D17047C117484033
:1020C000401AFAD0C90713B5064B1B6898470CBCD9
:1020D000441CA2401005120B0349091B09051943B2
:1020E000114310BD6C1B00201F04000010B54C00F4
:1020F000620D8023D218DB00D21A5B057E2A10DD28
:102100009E3A13DACC170903490819435242D140C9
:10211000640001341532202A05DAD04008436043B8
:1021200010BD002010BD0846604310BDC80FC01888
:10213000013810BD18B4024B5B6A019308BD000062
:102140000812002010B50148FEF7B8F9906500109C
:10215000132370B51D78012D19D014DD1D48FFF72C
:102160003FFB06001C48FFF73BFB1C4C8022310064
:10217000200000F0AFF8022D06D01948FFF728FB29
:10218000184B186070BD154C174BA364F5E7174B3F
:10219000124C23606360A360E36023616361A36109
:1021A000E36123626362A362E36223636363A36305
:1021B000E36323646364A364E36423656365A365E5
:1021C000E36523666366A366E36623676367A367C5
:1021D000E367D9E75344000053460000081200208B
:1021E0004C3300006C1B0020F12100104521001031
:1021F00007B5604601880A0A0230DF2AFAD1C9B25F
:10220000820804D3028840880004104300E000687C
:10221000014A5050039007BD081200205143434328
:10222000C9188C46110C83B24B4310B4040C6143A3
:1022300092B280B2504362431C041B0C001910BCC4
:1022400059411304120CC0185141614470470000F9
:1022500010B50148FEF732F914650010132310B5CC
:1022600010481C78FFF7BCFA0100012C0AD003DDEE
:1022700080220D4800F02EF80C48FFF7A9FA0C4B0D
:10228000186010BD084C5422200000F023F82200F2
:10229000084980322368002B00D121600434944225
:1022A000F8D1E9E753460000701B00204C330000D2
:1022B0006C1B00205122001001480421014B1847DB
:1022C00030100020F1170010014B1B681847000068
:1022D00030100020014B5B681847000030100020D0
:1022E0009A4200D2885470477047C046F8B55746A6
:1022F000DE464E464546E0B599460A9B07009A469B
:102300000D9B884693460B9C9B073BD10C9B9C42A4
:102310003DD21E1B0B9415000C005E442A004B4658
:10232000013521002020B847B542F7D1A0460B9CCB
:10233000002C20D0454636195346321B013C185D0F
:1023400029004B46B847002CF6D12B0035009846A3
:102350000D9B9B070FD55B46EC1A0C9BA3420AD939
:10236000464698462A004B46310020200134B847A3
:1023700001354445F6D32800F0BCBB46B246A94619
:10238000A046F8BD16001500002CD3D1E0E71600DA
:102390001500002CCED1EEE7F0B54546DE46574697
:1023A0004E46E0B585B09C4610AB1B78149F934613
:1023B00098460F9C129E139DBB074CD4002D42D112
:1023C000B44248D201233B4099460E9B013B9A46BA
:1023D000302304E0524601341355A64201D9202C83
:1023E000F8D14B46002B00D183E00E9B013B994670
:1023F0003023A54205D82EE04A4601341355AC429D
:1024000029D0202CF8D1FB060CD57B0554D4A6424C
:1024100063D0A54261D0119B102B50D0022B57D016
:10242000202C32D1202301930E9B5A460093039710
:1024300063460295FFF75AFF05B0F0BCBB46B246B3
:10244000A946A046F0BD01233B40994601233B42EB
:102450002AD1B442B9D3FB061CD57B05DBD4002CB2
:10246000D5D1119B102B5BD0119B022B6BD030234D
:1024700001240E9A13704346002B10D17B073ED5E2
:102480002B260E9A631C1655CDE723000134302607
:102490000E9AD654202CC5D04346002BEED02D26C4
:1024A0000E9A631C1655BEE74346002B2FD0013D04
:1024B000B44200D289E798E7119B102BB2D1BB063A
:1024C00037D5202CAED058230E9A13550134A7E7E8
:1024D000202CA7D02300013407E0631E012CC0D0BC
:1024E000119A102A31D0022AD1D162260E9AD654DE
:1024F00096E7FB06CED57B0500D488E78BE7230063
:102500003E0790D520260E9A013316558BE70C23F3
:102510003B405A1E9341ED1AB44200D255E764E79E
:10252000BB060ED478230E9A022413703023537006
:10253000A1E7202C00D175E778230E9A13550134BA
:102540006EE75823EFE76033EDE70E9AA61E91463B
:102550004E44BA0602D55822327098E7782232707B
:1025600095E7C04610B5002800D110BD01F08EFCE3
:10257000FBE7C0460B0010B5002802D049681B6875
:10258000984710BDF0B55746DE464E464546E0B585
:1025900095B083460F00924698461E9A1F9B1000E6
:1025A0001900209EFFF779FD002800D0EAE11E986F
:1025B0001F990122C54B5242FFF754FD002800D05D
:1025C00014E11E981F990122C14B5242FFF760FD92
:1025D000002800D0E9E01E981F990022BD4BFFF7AC
:1025E00057FD002800D0C8E01E981F990022BA4B62
:1025F000FFF738FD002800D0BFE01E981F99002289
:102600000023FFF72FFD002800D0E4E000230B9308
:10261000229B5B0500D406260024302307E0172107
:1026200006AA013452181355013E202C01D0092E60
:10263000F5D81E981F99FFF759FDA84BF2009B187B
:102640001A685B68050008920993FFF737FD0200DE
:102650000B001E981F99FFF7A2FC089A099BFFF731
:10266000C2FC06900791FFF765FD8146FFF722FD4A
:1026700002000B0006980799FFF791FC0022984B87
:1026800006900791FFF704FD002800D10DE101231A
:102690009C46E1444846FFF70DFD02000B000898F8
:1026A0000999FFF7E5FC002802D00023994601357F
:1026B000002E00D1D9E006954D46B94614E006AA91
:1026C000944617230A216344280001341F19FFF799
:1026D0002BFA3031397028000A21013EFFF724FA25
:1026E000092D00D817E10500202CE8D14F46069DA2
:1026F00020240CAE06AA17239446634499465B46F1
:10270000B34606930FE04B4628000A210134E61831
:10271000FFF7E2F93031280031700A21FFF7DCF9C8
:10272000051E00D1E4E0202CEDD1069B5E469B46C1
:102730000323229A1340012B18D1219B002B15D083
:102740000B9B002B00D1FDE0219B013B2193202B13
:102750000CD93023219A07E0172006A90134091863
:102760000B55944200D3CCE0202CF5D1229B019450
:102770000393219B0096029322E0229B52460493EE
:10278000219B3900039358461E9B1F9C0296009381
:102790000194434600F04AF90400200015B0F0BC53
:1027A000BB46B246A946A046F0BD229B5B070FD4AC
:1027B00003224C4B2299019203912199009302919B
:1027C0004346524639005846FFF790FD0400E4E7BF
:1027D0000422454BEEE71E9A1F9B00200021FFF7C5
:1027E000DEFB01231E901F910B9311E7229B5446A1
:1027F0009B0711D1219B042B0ED9219B55469C464A
:102800005E46043C64442A004346013539002020DA
:10281000B047A542F7D1B346344D26002B1F994649
:102820005B46A3461C003200E87843463900013D70
:10283000A04701364D45F6D123005C469B46229BBE
:1028400004349B07A9D55346219AE31A9A42A4D986
:102850005E4615002200434639002020B04753460B
:102860000134E31A9D42F5D897E72800FFF726FCCC
:1028700002000B001E981F99FFF791FB0022184BD6
:1028800006900791FFF7EEFB0CAE002800D031E771
:10289000069807990022124BFFF7FAFB002800D098
:1028A00028E7012301359D4324E700220698079974
:1028B0000B4BFFF7D7FB002800D0F9E64B46002B67
:1028C0005CD101239C46E144F2E6C046FFFFEFFFE6
:1028D000FFFFEF7F65CDCD4165CDCDC1886800108C
:1028E0000000E03FEC650010E4650010F4650010A6
:1028F000069B5E469B460323229A1340012B00D180
:1029000081E0202C00D131E70B9B002B27D02D2319
:10291000335501342AE74F46069D202C00D1E7E6C7
:102920003022331907E0172006A9013409180A5587
:10293000202C00D1DCE6A342F5D12E220CAE0134CE
:10294000F254D7E60C23229A134257D0219B013B25
:102950002193A34200D9FCE6202C00D106E7229B5C
:102960005B0703D52B2333550134FFE6229B1B075E
:1029700000D4FBE6202333550134F7E6DB0700D40F
:1029800096E69EE7229B55469B0711D1219B032B80
:102990000ED9219B54469C465E46033D6544220069
:1029A0004346013439002020B047AC42F7D1B3464A
:1029B000B9465F461C4EEC1C2A00B0784346494697
:1029C0000135B847013EAC42F6D1229BBB464F468B
:1029D0009B0700D4E1E65346219AE31A9A4200D8B5
:1029E000DBE65E4615002200434639002020B04752
:1029F00053460134E31AAB42F5D3CEE6219BA34202
:102A000000D9A6E6B2E6219B002B00D179E70B9B0B
:102A1000002B97D0219B013B21939C4200D298E64A
:102A2000202C00D073E7A1E6F0650010F0B5DE467B
:102A300057464E464546E0B599B081468B4692468C
:102A40009846229A239B10001900FFF726FB0028C6
:102A500000D0CAE0229823990122824B5242FFF70C
:102A600017FB002800D0C0E02298239901227E4B5A
:102A70005242FFF7F7FA002800D0B6E022982399D7
:102A800000220023FFF7EEFA002800D0C9E1229BC4
:102A9000239C08930994089809998023269ADB00BF
:102AA0001A400D928022269C1201144022000B94A1
:102AB000269C07000E001C4200D0ADE00B00034333
:102AC00000D0D5E0002A00D00AE222000633249389
:102AD000022313400C930223134200D002E2259BF1
:102AE000042B00D20FE2043B0B93002304250A932E
:102AF0000022229823990023FFF7B4FA002800D07F
:102B000003E25A4B269A134004930B9B0393249B96
:102B10000293089B099C00930194594643465246F0
:102B20004846FFF72FFD02002020269B1F27034069
:102B300059424B415B421840531C08935946434647
:102B40004530C8470A9AD317D4185C40D30F0A936C
:102B50006B1E0B9308AB9C460025674401E0202DBB
:102B60000FD020000A21FEF7DFFF01357E1930313A
:102B7000317020000A21FEF7D7FF26000400092E3D
:102B8000EDD8052306930B9B594605930023049328
:102B90000A3303930A9B4846029310AB0093089AAA
:102BA00043460195FFF7F8FB0C9B002B2DD05346B5
:102BB000C41A259BA34228D94D465F4681461E0074
:102BC000534639001A19202043460134A847A6422B
:102BD000F6D8534648462599C21A0132002391423D
:102BE00000D386E1013018180FE0269B0493259B43
:102BF0000393249B0293229B239C009301944346BE
:102C0000524659464846FFF7BDFC19B0F0BCBB46DA
:102C1000B246A946A046F0BD01432BD10B9B220032
:102C2000002B00D154E700230A93249B0A9A002426
:102C3000934200DD85E12298239900220023FFF7CB
:102C400011FA002800D035E1269B084A02941A4068
:102C50008023DB0013430493259B0393089B099C6B
:102C6000CBE7C046FFFFEF7FFFFFEFFFFFF7FFFF60
:102C700006232493B44B70009C46400D6044FFF73C
:102C80001DFAB24AB24BFFF7AEF9B24AB24BFFF7A8
:102C90008BF93603B14B360B334304000D0038007B
:102CA00019000022AE4BFFF77AF9AE4AAE4BFFF7A0
:102CB0009AF902000B0020002900FFF775F9FFF7D1
:102CC00015FA0A90FFF7FAF9A84AA94B04000D007B
:102CD000FFF789F90022A74BFFF766F9FFF706FA1D
:102CE000A54A0600A54B20002900FFF77CF9040047
:102CF00030000D000C96FFF7E1F9A14AA14BFFF758
:102D000072F902000B0020002900FFF748F90200C9
:102D10000B0006000F00FFF766F9320004000D00FB
:102D20003B0030003900FFF73FF900220E900F9171
:102D3000954B20002900FFF73CF90022934BFFF749
:102D400033F902000B0020002900FFF732F90022BE
:102D50008F4BFFF729F902000B0020002900FFF735
:102D600028F90D008021040032003B000020C90535
:102D7000FFF715F902000B0020002900FFF714F9F6
:102D800002000B000E980F99FFF713F90022734B06
:102D9000FFF70AF97F4B0C9C9C46644400222305F4
:102DA000FFF721F906000F0002000B0008980999AF
:102DB000FFF758F900280AD00A9B3000013B390080
:102DC0000A930022714BFFF7F4F806000F000A9AED
:102DD000330063323900C62A12D80222269804250D
:102DE00010400B9A0C90002A25D1259B042B05D965
:102DF000002800D0A1E0259B043B0B93042541E073
:102E00000222269810400B9A0C90002A12D1259B82
:102E1000052B76D9002872D1259B0525053B0B9300
:102E200034E0802212069446229B0893239B63443D
:102E3000099330E605250B4300D1F6E60898099979
:102E4000554A564BFFF71CF9002808D008980999F5
:102E50000022534BFFF706F9002800D0E5E6249B3B
:102E6000002B1CD00D9B002B19D0249B013B2493DD
:102E7000259BAB4204D90C9B002B5AD002230C9308
:102E800000230B930A9B002B00D131E60898099987
:102E900032003B00FFF78DF80890099128E6259B4A
:102EA000AB42EDD90C9B002B43D000230B93023394
:102EB0000C93E7E78020269B3A4A00061A408023BD
:102EC00084460294089C099D2900DB001343049367
:102ED000259B6144220003930B00009201938EE630
:102EE0000524A8E600230B930A93023304250C93D0
:102EF000FEE553468C46013B63441B1A72E60223EF
:102F00000C930525C2E70423EDE58020089E099F68
:102F1000000639008446269A224B614413400493EC
:102F20000B9B32000393249B02930B0000920193AE
:102F3000F3E5259B5B1B0B93A4E7022304250C936D
:102F4000A0E79C1A013C76E601FCFFFFFB799F504D
:102F50001344D33FB3C8608B288AC63F0000F03FBC
:102F60000000F83F61436F63A787D23F71A37909DF
:102F70004F930A400000E03F1655B5BBB16B0240CD
:102F8000EF39FAFE422EE63F00002C4000002440BC
:102F900000001840FF0300002D431CEBE2361A3FEF
:102FA00080842E41FFF7FFFFF0B5DE4657464E46C0
:102FB0004546E0B5A5B01E002E9B92460C93CD4A27
:102FC000CD4B80468B461A60002900D1EAE10023F0
:102FD00030789946002800D1ECE1C84B4C460B9361
:102FE000C74B454657460E930AE0631C984622009D
:102FF0003B005946A84744463078002800D187E076
:1030000001362528F1D108239A46043B9946023B14
:103010009846013B00229C460D943078711C0300B9
:10302000203BDBB2102B03D80B9C9B00E3589F4640
:103030000300303B89460D9C092B3AD90023984662
:103040002A2800D1C1E000239A462E284BD0030045
:10305000683BDBB2122B1ED80E999B00CB589F46C3
:1030600063460E001A43D8E743460E001A43D4E7DE
:103070004B460E001A43D0E710230E001A43CCE74C
:1030800053460E001A43C8E780235B001A43FF3BF8
:103090009C467078E1444E4667284FD82428A4D92E
:1030A0000300253BDBB2422B9FD896499B00CB58AF
:1030B0009F46002394461E0000E00131B3009B1997
:1030C0005B001E180878303E0300303B092BF4D912
:1030D0000123624689469C460023B0469A460E006C
:1030E000E1442E28B3D13021802049428C46C000D3
:1030F000024370784B4684446146092900D86CE14C
:103100002A2800D17AE101239C464E46E1449EE7FD
:10311000A146A846BA46CA4503D801235B42534498
:10312000994653464A4659460020C047200025B0DC
:10313000F0BCBB46B246A946A046F0BD0300693BC1
:10314000DBB20D930F2B00D94FE7012199408C463C
:103150006D49894661464B4619400F916346494681
:103160000B4200D028E10D9B0A2B3AD0072B00D050
:103170003BE70C9B190008C98846002B00D14BE1A6
:1031800021200243914614A98C461F220F2162443C
:103190008C4651460D950C91A24615000F9902E000
:1031A00020290CD0130064461C4020003730092C25
:1031B00000D80738013168541A090F2BF0D80C9B3E
:1031C00054460D9D9A460F9133E10C9B02CB8846E5
:1031D000002947DB0C9301239C4670784E46E1445E
:1031E00031E70C9B02CB14935346002B00D138E1FE
:1031F0009C4608780B000C908C44002801D100F00C
:1032000098FC89466146944603E05A780133002AC7
:1032100001D08B42F9D1494662465B1A0C900F935C
:10322000530500D520E10223180010400D901342F1
:1032300000D1CBE30D930B1BB1469A465E460C982A
:1032400022003B003100A84753460134185D002896
:10325000F6D1B3464E460D9B002B00D0C7E1149B20
:103260000C93C9E60C9301239C462838494202433B
:10327000884670784E46E144E5E670786C2800D1C7
:103280007FE180235B001A43FF3B9C46E14402E759
:1032900080239B001A4301239C467078E144FAE6A0
:1032A0007078682800D173E180231A437F3B9C46E5
:1032B000E144F0E6672800D103E1472800D15AE154
:1032C000452800D15AE10492072142460C9B039203
:1032D000073352468B43190002920CC92800009212
:1032E00001930C9122003B005946FFF79FFB04001D
:1032F00082E6C046A92F0010401B0020EC6600109B
:10330000306700107C67001041900000462800D113
:10331000DBE00492072142460C9B0392073352469E
:103320008B43190002920CC92800009201930C9162
:1033300022003B005946FFF725F904005CE6631CB8
:10334000984622003B0059462520A847444653E6AC
:103350000C9B04330D93631C9946920700D422E121
:103360000C9B2200187859463B00A847434644442A
:10337000012B00D885E23300B8462E005F462500B9
:103380004C46994622004346013439002020B0477C
:10339000AC42F7D12C00BB46350047464E460D9B4C
:1033A0000C9329E6DB4B3078984600239946002899
:1033B00000D012E60024AEE66F2800D188E000D8E5
:1033C0000BE31023782800D1CFE09A430A239C46D0
:1033D00000230F930A330D9380E05646B1008919FC
:1033E000490001330E181878303E010030390929A0
:1033F000F4D9B2461E000133994628E60C9B0236EA
:1034000002CB8A46C9435046C917084082460C93EE
:103410003078731C99461AE6102310009843113334
:103420001843814680201300C0000340024200D1AF
:10343000A9E64B46069308230593534604931023AD
:103440000393002302930F9B220001931CAB009374
:1034500059463B002800FEF79FFF434604000C93AB
:10346000CAE501235B42C3E60F9B534501D953468E
:103470000F930223180010400D90134200D1B7E1C2
:103480000D93D1460B1B9A463300A1442E00220017
:103490004D460C98B9465F469B4608E04B463900BE
:1034A000541CB0475346185D002877D0220095423F
:1034B000F4D15B46BB464F46A94635004C461E003C
:1034C000C9E680231B011A43FDE620231A4320E7A7
:1034D00008239C4600230F9308330D93802311008B
:1034E000DB0019401A4200D116E10D239A43100067
:1034F000802302009B001A401492184200D0C2E1BF
:10350000802302005B001A4091460C9A04320F920D
:10351000184200D0B7E2430600D59FE1030600D46D
:1035200019E30C9B1B880993002B00D0FCE110339E
:103530009843002900D1F7E10023994643460593BB
:10354000534604930D9B069003930023D2E0582822
:1035500008D0622867D102239C4600230F930233D0
:103560000D93BBE720231A43103B9C4600230F9387
:1035700010330D93B2E780231B011A4320231A4313
:10358000A1E6C0239B001A43F31C9946B07882E55C
:10359000C0231A43F31C9946B0787CE535005E469B
:1035A000BB464F4657E64346012B00D863E1631EF6
:1035B00043449A463300B9462E005F4655469B4623
:1035C000A24622004B46013439002020B047AC42CD
:1035D000F7D135005E46BB464F46A14654460C9B8C
:1035E0004A46187859463B004444A847D7E6A146C6
:1035F0000F9B984500D832E64444E41A3300B8469D
:103600002E005F4625004C46994622004346013471
:1036100039002020B047AC42F7D12C00BB46350022
:1036200047464E461BE680231000DB0018401A4236
:1036300000D10FE1112118008A430D920D9A8023C9
:1036400011009B0019408C461A4269D18023110059
:103650005B00194089460C9904310F911A4200D041
:10366000CAE113005B0600D5F0E013001B0600D48E
:1036700059E20C9B00229B5ED9175A184A4092B21D
:10368000D90F0C91002B00D1F9E1100014AA944637
:1036900042461F23149252466344A84616944D4650
:1036A0000400B946B2461F00159201E0202D0FD04C
:1036B00020000A21FEF738FA01357E1930313170C9
:1036C00020000A21FEF730FA26000400092EEDD86A
:1036D000149B4F46A94645469846159B56469A4622
:1036E000169C0D9B069343460593534604930A2369
:1036F00003930C9B02934B4601931CAB2200009357
:1037000059463B002800FEF747FE0F9B04000C9330
:1037100072E4C046E92200100C239A431000E7E649
:1037200007220C9B07339343013294469C44624624
:103730000C920CCBD90F0F911100194300D191E0DD
:10374000D917139112915140109113995940119129
:1037500010981199129A139B801A99411090119107
:1037600014AA0023944642469946149252461F33A7
:103770006344A846B24616944E46109C119DB94625
:1037800015921F0001E0202E10D0200029000A22EF
:103790000023FEF707FA013630322B00BA550D0030
:1037A00022000400002BEED1092AECD8149B1094BF
:1037B000119545469846159B4F46B14656469A4642
:1037C000169C0D9B069343460593534604930A2388
:1037D00003930F9B02934B4601931CAB2200009373
:1037E00059463B002800FEF7D7FD0400FFF704FC14
:1037F0000F9B984500D8C1E18023DB000D93434621
:103800000F9A1B199B1A994633002E004D46B94654
:103810005F469B460C9122004B4601343900202024
:10382000B047AC42F7D143460C9901330F930B7864
:1038300035000C935E46BB464F46002B00D10EE58B
:103840000D9B002B00D1F6E4002319E60C9B1B789E
:103850001A0015E710239A430D92EFE60C9B1B7894
:10386000099361E6002399460028AAD1002200238B
:103870001092119374E70C9B2200187859463B0074
:10388000A8474C468BE50C9AFA3BFF3B07329A431C
:103890000133994691444B460C9313685268159234
:1038A0001A4306D11032904300220992002900D019
:1038B00081E06122810600D54122D2B20A9214AA87
:1038C00091460A9A00210A3A1492424617925246A9
:1038D00018925A460991B3461F311E000F9B494466
:1038E000BA4619941A950024674698468946159D4C
:1038F00016901B920AE03032D2B24B4601341A5570
:10390000A8454AD0202C4AD006000D003A000023DA
:1039100030002900FEF746F9D2B2092AEBD9149BF0
:103920009C466244D2B2E8E76123820600D5412377
:10393000DBB20A3B0C93434614A91F228C46159315
:1039400053466244A046B2464C461797A946170014
:10395000099D0D9E1490169308E03033DBB20134BC
:103960003B55B5420ED3202C0CD005003100280069
:10397000FEF7DAF8CBB20929EFD90C9A94466344E2
:10398000DBB2ECE7159B4D46A14644469846169B94
:10399000564614989A46179FD0E5B742B2D9179B5E
:1039A00057469846189B5E469A461B9B09949B4631
:1039B0001698199C1A9D43460593534604930D9BF4
:1039C0000690039300230293099B05E70F9B9845FC
:1039D00000D914E701330F932DE41023110099430C
:1039E0000D91692800D0BAE080231000DB00184058
:1039F0001A4200D122E61DE60C9B1B68DA0F11006B
:103A0000002B00D18CE0DA179818504014AA914688
:103A100042461F23149252464B44A046A94616978D
:103A200004006546B2461F000C91159201E0202D5E
:103A30000FD020000A21FEF777F801357E193031CA
:103A4000317020000A21FEF76FF826000400092ECD
:103A5000EDD8149B444698460C9BAC461900159B28
:103A600056464D469A46169F0D9B02910693434635
:103A70000593534604930A23039363463CE60028C8
:103A800000D02EE602E60C9B1B689946002B03D162
:103A900010339843002938D16123820600D5412391
:103AA000DBB20A3B0C9343461693534614A91F22DC
:103AB0008C4617932B006244A0464D46B246189799
:103AC00099461700149C0D9E159008E03033DBB228
:103AD00001343B55B5420ED3202C0CD005003100EB
:103AE0002800FEF721F8CBB20929EFD90C9A9446A9
:103AF0006344DBB2ECE7169B149444469846179B4C
:103B000056464D469A461598189F43460593534688
:103B100004930D9B0690039300230293149BEBE503
:103B20000028A1D172E70C9B1B68D9175A184A408C
:103B3000A6E580231000DB0018409C460F901A4237
:103B40000FD00220030013400F93104219D000231E
:103B5000A1460F934CE50C9B1B680993E4E40A0013
:103B600034E40223180010400D90134200D03EE5CB
:103B70004346002B00D042E6FFF771FB01330F9361
:103B80007FE463460D93F3E70CB430B585B008AC21
:103B900008CC064D0A000094010028000394FFF7AA
:103BA00003FA05B030BC08BC02B01847E12200108F
:103BB00010B50C0084B00394012402A90290009374
:103BC000034813006242FFF7EFF904B010BDC0468E
:103BD0007525001010B5094A0300146884B0002C44
:103BE00008D0012200910648524203A9A0470120B3
:103BF00004B010BD00F094F90020F9E7401B00204C
:103C00006525001000BEFDE77047C04610B5FFF700
:103C1000F9FFC04670B5FDF73BFE074D074EB542B4
:103C200009D20024013E761BB60808CD9847230030
:103C30000134B342F9D170BDC4640010C8640010EF
:103C4000030010B5080011001B68984710BDC0465E
:103C5000F0B5C64600B5437D07000C001600002BEA
:103C600046D0002A17DD0B780A2B24D00023984673
:103C7000012E13D001252900635C01350A2B26D0C3
:103C8000B542F8D1464509DCA419013C23780D3B27
:103C90005A4253413B7580BCB846F0BD4346E018DC
:103CA000A419F11A013C3B68984723780D3B5A420E
:103CB00053413B75EFE7037D002BD7D102210F481D
:103CC0003B689847012EDFD001239846D2E7631E58
:103CD0005B5C0D2BD4D0884504DA4346C91AE01842
:103CE0003B689847022105483B68A8469847C7E7C4
:103CF0000368110020009847CDE7C046D86800103F
:103D0000F8B50B680D005A1CCB180A601871802A90
:103D100000D0F8BD0E4B1C68002C15D00D4E0F1DA9
:103D200002E02469002C0FD02368002BF9D03368FF
:103D3000002B01D0A342F4D1200039002A68FFF7FC
:103D400087FF2469002CEFD100232B60E1E7C046F8
:103D5000341700203C170020F0B54546DE464E469D
:103D60005746E0B583B091461C0080460D00FDF734
:103D7000B5FA0023304A12184B41002B02DA012217
:103D80002E4B52422E4908008A4602F05DFB070086
:103D90006B1C03D1404602F0E9FA0500002C27D045
:103DA000284E294B1C68002C18D04B46002B21D1E3
:103DB000264B994602E02469002C0FD02368002B83
:103DC000F9D04B461B68002B01D09C42F3D1200058
:103DD0002A004146B0472469002CEFD1002F26D19C
:103DE000280003B0F0BCBB46B246A946A046F0BDD1
:103DF000174ED6E7154B99460A239B4602E02469E5
:103E0000002CEBD02368002BF9D04B461B68002B0D
:103E100001D0A342F3D12A0041462000B0476B46AF
:103E20005A462000DA71D91D0122B047E7E7504613
:103E300002F0CAFAD4E7C04640420F00FFFFFF7FFE
:103E400078100020513C0010341700203C1700204F
:103E5000413C00100A4A1368002B05D10CE01A00FF
:103E60001B691032002B07D08342F8D1002902D100
:103E700018691060196170470029FCD01060FAE7DA
:103E80003417002010B500F06FFA10BDF0B5CE4623
:103E9000474680B583B06B460600DD1D2870FDF7F0
:103EA0001DFA0023194A12184B41002B02DA012295
:103EB000174B524217490800884602F0C5FA164BC4
:103EC00081461C68002C14D0144F02E02469002C99
:103ED0000FD02368002BF9D03B68002B01D09C4207
:103EE000F4D1200001222900FFF7B2FE2469002C42
:103EF000EFD14B46002B05D1300003B0C0BCB94612
:103F0000B046F0BD404602F05FFAF5E740420F00D0
:103F1000FFFFFF7F78100020341700203C1700209F
:103F200070B5040002F022FA01230100050001220D
:103F30002000FFF711FF084B1C68002C06D06368B7
:103F4000002B05D098472469002CF8D1280070BDBB
:103F50002469002CF3D1F9E734170020F0B5CE46E0
:103F6000474680B5A3B004000D00FDF7B7F9002364
:103F7000274A12184B41002B02DA0122254B5242EC
:103F8000254E300002F060FA002322000193070062
:103F90002B00224801A9FFF70BFE214B80469946D2
:103FA0001C68019B002B1AD0002C2FD01D4D02E065
:103FB0002469002C0FD02368002BF9D02B68002B2C
:103FC00001D0A342F4D12000019A02A9FFF740FEDC
:103FD0002469002CEFD14B461C6800230193002C70
:103FE00006D06368002B0BD098472469002CF8D1C9
:103FF000002F07D1404623B0C0BCB946B046F0BD43
:104000002469ECE7300002F0DFF9F3E70194EFE711
:1040100040420F00FFFFFF7F78100020013D00109D
:10402000341700203C1700200FB400B583B004A95A
:1040300001C90191FFF792FF03B008BC04B0184713
:10404000024B1860024B19607047C046D41600201E
:10405000D816002010B5024B1878FCF709FB10BDEC
:10406000971C0020154B70B51A68002A22D0EFF378
:10407000108172B610680028FCD0BFF35F8F00205B
:104080000F4A596010701B68BFF35F8F186081F38F
:104090001088002400250B4E3078FCF7DDFA00284C
:1040A00004D1002400252900200070BD3078FCF7E1
:1040B000DFFAF8E7FA240025A400ECE74C1B002007
:1040C000981C0020971C002070B5040000200E00F2
:1040D00001F06CFB002834D0002001F07DFB0028AB
:1040E0002FD0FDF7FBF80023174A12184B41002B85
:1040F00016DB164D280002F0A7F9002821D0002079
:1041000001F054FB00280FD101200021404200F0B3
:1041100077FD03246442280002F056F9200070BDA8
:1041200001220B4B5242E4E7002001F055FB00282E
:10413000EAD021003200002001F058FB041EEAD131
:10414000E7E703246442E9E740420F00741C0020C3
:10415000FFFFFF7F10B5FDF7C1F800230D4A1218CD
:104160004B41002B02DA01220B4B52420B4C200038
:1041700002F06AF900280CD001200021404200F032
:104180003FFD002001F076FB0028F5D1200002F071
:104190001BF910BD40420F00FFFFFF7F741C002081
:1041A000F8B5DE46574680B505000C00FDF796F8D9
:1041B0000023364A12184B41002B02DA0122344BFD
:1041C0005242344908008A4602F03EF9002803D1E1
:1041D000C0BCBB46B246F8BD002001F0E7FA00289B
:1041E0004AD00026002C43DD2B4B9B4614E0A91936
:1041F000002001F079FB070001200021404200F07F
:10420000FFFC002001F036FBFDF768F8224BF619A1
:1042100018605960B4422BDD002001F085FBA71B1C
:104220000200B84200DD3A00002AE0D1012000215E
:10423000404200F0E5FC002001F01CFB002001F0F2
:10424000B5FA002814D0002001F06EFB0028E1D15F
:10425000FDF744F85B460F001A685B68002184464E
:104260000E4812184B419F4202D8D3D19445D1D960
:10427000504602F0A9F8ABE700200021064B186079
:104280005960504602F0A0F8A2E7C04640420F0035
:10429000FFFFFF7F741C00200012002020A10700F8
:1042A00030B52A4C85B00021200002F0A5F8002886
:1042B0001CD1274B1A68002A16D0EFF3108172B672
:1042C00010680028FCD0BFF35F8F0124214859609B
:1042D00002781B68D2B20470BFF35F8F00201860B1
:1042E00081F31088002A17D005B030BD01200021CD
:1042F000404200F085FC002001F06EFA050020002D
:1043000002F062F8002DEFD0134B1B68002BEBD0AE
:10431000124A10689847E7E7FCF7B2FD0400FCF783
:10432000DDFFFA220023920012184B41002B02DA23
:1043300001220B4B524201210291002101910949B6
:1043400020000091FCF7A0FDCEE7C046741C0020C1
:104350004C1B0020981C0020D4160020D8160020EA
:10436000FFFFFF7F65400010D02310B51B0684B00F
:104370001C68FCF785FDFCF781FEA04202D00020FE
:1043800004B010BD294B002100201B7801F092FCE5
:1043900027480368002B45D00120FCF7FFFAFF23D4
:1043A000244C254920701840FCF77CF92078012125
:1043B000FCF740F90520FCF763F9002824D1082216
:1043C00000211E48FDF780FFFCF75AFD0400FCF7B2
:1043D00085FFFA220023920012184B41002B02DACB
:1043E0000122174B524201210291002101911549EE
:1043F00020000091FCF748FD0028C0DB1248012195
:10440000FFF728FD0120BBE70120FCF7E1F80B4B8B
:1044100001001800FCF724FB002205200B49FCF7E3
:104420006BF9EBE7FCF700FBB6E7C046386B001012
:10443000741C0020971C0020A14200104C1B00207F
:10444000FFFFFF7F65400010401000205540001026
:104450000048704754690010004870470069001018
:1044600010B5040017480378002B20D0002C06D18B
:10447000154B16484380063BFF3B038010BD052CBF
:104480001DD8134BA400E05812490123013804E061
:1044900001330A800231142B0DD0C25C002AF7D1FF
:1044A000C022DBB25B00920008481343E5E711210C
:1044B00000F01AF8DAE7CA2304489B00DDE7002081
:1044C000DCE7C046801C0020090400000C17002017
:1044D000E86800100E17002010B5024800F0D8F868
:1044E00010BDC046641B002030B54B1E012900D111
:1044F000A7E0664A11780D092C0030349F2900D9B5
:10450000A2E00470012B00D1BEE00F2114782140FD
:104510000C003034092900D998E04470022B00D1F6
:10452000B2E054782509290030319F2C00D990E061
:104530008170032B00D1A7E00F2121400C00303403
:10454000092900D987E0C470042B00D19CE094783D
:104550002509290030319F2C00D97FE00171052BFE
:1045600000D191E00F2121400C003034092900D9FD
:1045700076E04471062B00D186E0D4782509290025
:1045800030319F2C00D96EE08171072B00D17BE088
:104590000F2121400C003034092966D8C471082B42
:1045A00000D171E014792509290030319F2C5FD8A2
:1045B0000172092B68D00F2121400C0030340929E9
:1045C00058D844720A2B5FD054792509290030311C
:1045D0009F2C52D881720B2B56D00F2121400C00FA
:1045E000303409294BD8C4720C2B4DD0947925094D
:1045F000290030319F2C00D9073101730D2B43D096
:104600000F2121400C003034092901D937310C0029
:1046100044730E2B38D0D1790C09220030329F29F7
:1046200000D9073282730F2B2ED00F220A401100BF
:104630003731092A01D830321100C173102B23D031
:1046400010300023037030BD07345AE737310C00B7
:1046500063E707316CE737310C0074E707317DE71A
:1046600037310C0085E707318EE737310C0095E7CD
:1046700007319DE737310C00A3E70731AAE737314F
:104680000C00C4720C2BB1D1C018DAE7641B0020F7
:1046900010B588B004000D2200216846FDF714FE15
:1046A0000D22002104A8FDF70FFE6A464B23684641
:1046B000137004A900230D2201F0D6FE1521082253
:1046C00020006944FDF706FE08B010BD7047C046E3
:1046D0000022014B1A707047961C00204B79002075
:1046E000FF2B0BD18B79002B08D1CB79012B05D176
:1046F000082A03D9024B8A7809301A707047C046DD
:10470000961C00200120704710B5012913D11549CE
:104710005379107909781B0203430020994200D095
:1047200010BD5378012B08D0022BF9D1642200214F
:104730000020FCF7F7FF0120F2E7D1789378090217
:10474000194380230A005B001A40194206D00A066A
:10475000D20F480A03231940FDF76CF801204042AC
:10476000F8E7C046961C002000487047106A001009
:1047700070B5050014000120012909D153780020EB
:10478000012B05D1637912791B021343072B00D04B
:1047900070BD21002800024A9F3300F0E9FEF7E7D0
:1047A000686900100123037000487047346A0010E4
:1047B0004B780A781B0213438A7810B512041A4307
:1047C000CB781B0613439622D200934200D010BD33
:1047D0000022012011004042FDF72CF8F8B500F04E
:1047E00039F90C23194DFF22AB6705201849FBF757
:1047F00083FF184C402200212000FDF765FD402773
:10480000002301262121144A66702783A2601360C9
:1048100063545F31618445396354104A10496360C1
:10482000E2602787A1620B606362E26201F0DCFD57
:1048300080239B052E64EB6490230A4A0120EA50F2
:104840008022094B5202DA64F8BDC04600001150C4
:10485000FD0400204017002084001050000110507B
:104860008000105010D001000020115010B501211F
:104870000520FBF7DFFE10BD10B500220021024825
:1048800000F008F910BDC04660170020044B1970F5
:10489000002904D080219023024A8902D150704718
:1048A000921C0020002011500B785B0602D14B783F
:1048B000052B00D070478A78014B1A60FAE7C04692
:1048C00000001150F0B5C646CB7800B59B079C0F91
:1048D0002000012C56D08D780A794B797F211B025C
:1048E0002940EE0913434A0094462C4F9219520175
:1048F000BA18957001257540557000255B055B0D54
:10490000D5701383D476CA00012E2BD0244CA04638
:104910008C0142443C19A260156000292BD0214A29
:10492000C9009046414461603F223F3393430228CF
:1049300030D032001C4C624421685201BF181B4A1F
:10494000CB18F9602360934226D8194A83064A405F
:1049500013438022120613437A681360012080BC3F
:10496000B846F0BD134CA0468C0142443C19A262EB
:104970001560002908D100237601BE1973600E4B23
:10498000F360EBE70020EAE7094AC900904641449A
:104990006162C9E75B00CCE7FCF774FF40170020B9
:1049A0008400105004001050481B0020FF0F1050CE
:1049B00000001050800010500001105010B501F0A0
:1049C00013FD10BD10B57F200C0020404000E4090D
:1049D000110000191A00034B4001C01800F05AF8EA
:1049E000012010BD401700207F23180000B50840AB
:1049F00083B00B4204D14B424B41084A01339366CA
:104A00008022C9094000064B401840010021C0180F
:104A1000120101F0E1FC03B000BDC04600201150BE
:104A2000401700207F22130010B50B400A4200D12E
:104A300010BDC9095B005B1804485B01C018002366
:104A400000220349C37001F0C7FCF1E740170020C2
:104A5000FFF7FFFF80220A4B520410B51A60094B82
:104A600009491A6010000B689843FBD1802200218D
:104A700052010648FDF728FC0922054B5A6710BD74
:104A800000E0004000F0004008C00040000010506E
:104A900000001150002310B5C38201338282837657
:104AA0000161040001F0E8FC002804D0802190237B
:104AB000074A8902D150200001F0BEFC002802D034
:104AC0000123237710BD200001F0C6FCFAE7C046A1
:104AD000002011507047C0467047C0460020704704
:104AE000002070477047C0467047C0467047C046B8
:104AF0007047C046024B5878431E9841C0B2704779
:104B0000B8140020024B18784007C00F7047C04609
:104B1000B8140020F0B5D6464F464646C0B52D4BDA
:104B200007009A461B780E00FF2B4DD100293ED07E
:104B3000002154222848FDF7C7FB0022274C284BB0
:104B400020001A70FBF770FF264B1C60264C2000DB
:104B5000143CFBF777FF200001F0A8FB234B244D0A
:104B60001C60244B002B04D02800FFF71BFE224BB7
:104B70001860224A002491461F4A2B7890460EE086
:104B800043461B6862019B18002B10D05B68002B0A
:104B90000DD0984701342B78E4B2A34209D3A34245
:104BA000EED8E31A5B014B445B68002BF1D1002087
:104BB0000BE05346310038001F70FFF70FFE00284E
:104BC000F5D03800FFF752FE0120E0BCBA46B146EE
:104BD000A846F0BD74100020B8140020B0140020C6
:104BE000931C00200C1500206C10002010150020D4
:104BF000911C0020A547001008130020FC6A00103B
:104C0000F0B5DE4657464E464546E0B5C94B91B035
:104C100003931B78FF2B00D145E1C74BC74E9B4642
:104C20005F46C74B0DAC0293C64B019335686A696A
:104C3000EFF3108172B61368002BFCD0BFF35F8FC7
:104C4000A9612800210001F061F96A69AB69BFF32D
:104C50005F8F0021116083F31088002800D122E1CA
:104C60006378082BE2D89B00FB589F466368002BB3
:104C7000DCD0A0689847D9E77F222179B04D0A405F
:104C80005300EB189846C809804440460123303051
:104C900005799D430571057903339D430571002A0C
:104CA00000D107E14346A84A1B7D1278934200D306
:104CB000F7E0A64A5B011568ED18002D00D1F2E07F
:104CC000A36862792078AD69A847AFE7A04A137856
:104CD000002B00D1E7E01378013BDBB213701378AF
:104CE000002BA3D10122964D01212B7804201343E0
:104CF0002B703423EA5C8A43EA54EA5C8243EA5428
:104D00000133EA5C8A43EA54EA5C8243EA5423783A
:104D100000209B4600F08AFC602223791A40602A1A
:104D200000D1F2E0402A00D1F8E0DB06DB0E012BD7
:104D300000D115E1022B00D1CBE0002B00D0E4E044
:104D4000202A00D10FE2002A00D0DEE06379092B8F
:104D500000D9DAE07F4A9B00D3589F46784D2B78E4
:104D6000DB0700D462E7FFF7C3FE5FE7029BDB7857
:104D7000DB0700D45AE76068FFF7AEFE56E7704DD8
:104D80002B78DB0700D451E728780007C00FFFF726
:104D9000ADFE4BE723786B4A994693466A4B6B4AC4
:104DA000984692463A00002547461B78B0464E4644
:104DB00091460EE053461B686A019B18002B00D1F8
:104DC0007EE0DB683000984701353B78EDB2AB42BE
:104DD0000CD3AB42EED8EB1A5B015B44DB683000CE
:104DE000984701353B78EDB2AB42F2D2544D542294
:104DF00000212800FDF768FA1022FF21281DFDF789
:104E000063FA28002022FF21143046464F46FDF762
:104E10005BFA00F001FC2379AB7007E723784B4A7B
:104E20009946494B924698463200BB464E4600256D
:104E3000474691461B780DE053461B686A019B1854
:104E4000002B41D0DB683000984701353B78EDB24C
:104E5000AB420ED39D42EFD3019AEB1A94465B010D
:104E60006344DB683000984701353B78EDB2AB42D4
:104E7000F0D2029D542200212800FDF725FA1022CD
:104E8000FF213548FDF720FA28002022FF211430A9
:104E90004E465F46FDF718FA00F0BEFBFFF724FE12
:104EA000C4E6934213D011B0F0BCBB46B246A9464B
:104EB000A046F0BDA3686279207800F0CBFBB5E690
:104EC00046464F461E4DA4E74E465F46E4E71D4D5D
:104ED000F6E67023217A0B4217D1C80982460F33B8
:104EE0000B405B0098461848EB1853441B7D007834
:104EF000834260D215485B01006881469944002ACC
:104F000000D14FE14B46002B5DD120780021FFF707
:104F10006BFD80212078FFF767FD87E60F4800F0E2
:104F200085FB012158460EAAFFF722FC002800D07D
:104F30007CE6EAE774100020546A00101015002087
:104F4000B8140020FC6A0010911C002008130020F7
:104F5000931C0020786A0010BC14002071470010D8
:104F6000237A0F2BD1D8D64AEB181B7912789342AB
:104F700034D3CAD1D34D686900F058FB012158469B
:104F80006B690EAA9847002800D04FE660221500F2
:104F900023791D401A42B8D163790A3B012BB4D85A
:104FA00000F044FB63790A2B00D17FE158460EA93B
:104FB00000F0C8FA3AE6834200D0EEE0C14B9946D1
:104FC000002A00D1EEE04B46586900F02FFB4B461B
:104FD000012158465B690EAA9847A7E7BA4A5B01C8
:104FE0001568ED18002DC6D18FE7A37999466B7827
:104FF0009945DBD06B78002B00D02AE14B466B70D3
:10500000002B00D122E148460138C0B2FFF724FA54
:10501000002800D174E143780793022B00D06FE1A0
:105020000122C179B1468B11491113400A40302148
:1050300012015B0113432A78A8468A4313432B705D
:1050400009239A4682445646BA46C37882781B02A0
:105050001343C31805939A4B04939A4B08939A4BA6
:1050600009939A4B0A93059BB34200D84BE173789E
:1050700001220B2B03D13378F278F6187378042BC6
:1050800000D03AE1059B00279B1B9BB20693049B33
:105090000B921D7819E0099A7B011568ED18002D17
:1050A00000D12AE1310058462B69069A9847844678
:1050B000082803D9069A824200D30BE1049B0137EA
:1050C0001D78FFB2BD4200D217E1BD42E3D8089B74
:1050D0007D1B9C466D016544E4E76B780CAA0232A7
:1050E0001370584601230EA900F042FA9EE5E388AA
:1050F0001A0AD8B20F2A00D907E775499300CB588E
:105100009F460EA800F098FA5846A179FFF7B4FB25
:1051100002222B7813432B7088E5E388012B00D003
:10512000F3E608222B78584693430EA92B7000F023
:1051300009FA7BE5022029780CAB9A1C8B068908BA
:10514000DB0F01400B431380584602230EA900F0E9
:105150000FFA6BE5E388012B00D0D6E608222B7806
:1051600013432B7022E7237A0F2B00D9CDE6544A44
:10517000EB181B791278934228D2534A5B011568C9
:10518000ED18002D00D1C0E6686900F04FFA01214A
:1051900058466B690EAA9847C8E6002A00D0B4E6C4
:1051A0000023994662790220130004928343012B65
:1051B00011D0002A00D0A8E62B00434453443033DA
:1051C0001B790CAA9B07DB0F0232BCE7934200D08D
:1051D0009BE63C4DD8E7E388002B12D1039B18785F
:1051E000049B012B23D0FFF7FFFB43460221EB1862
:1051F000534430331A790A4301211A711A790A4348
:105200001A714B46002B00D110E5586900F00EFAD8
:105210004B4601215B690EAA58469847002000F0D2
:1052200005FA3523EB5CDB0700D5FFE4BEE6FFF7AC
:10523000F9FB43460221EB18534430331A798A4371
:105240001A711A7904998A431A71DAE7FFF74CFC4C
:10525000ACE600215846FFF719FB5846FFF7AEFBB6
:1052600000229246174AAB780592174A0493069299
:105270002A00134B5546984692461B780EE0069B33
:105280006A011B689B18002B56D0DB68584698476C
:10529000434601351B78EDB2AB4239D3AB42EED871
:1052A000059AEB1A94465B016344EEE70CAB9A1C3B
:1052B000584601230EA9157000F05AF9B6E4C0460D
:1052C000911C0020FC6A001008130020CC14002060
:1052D000A06A00100B9A012A4DD0002A3CD000236E
:1052E000B07804E00133DBB20F71934234D2C118BD
:1052F000C9B241440D79FF2DF4D04E46454657467C
:1053000000236B7001E64E465746FFF7EBFB4DE678
:105310005546542200212800FCF7D6FF1022FF2119
:10532000281DFCF7D1FF28002022FF211430FCF7B4
:10533000CBFF049BAB7061E65546FAE7FFF714FA22
:10534000021E00D1E1E5D37891781B020B43584649
:105350000EA900F00DF9E9E565463B0031002A0091
:105360000A9800F04FFDAC46049B66441B78BB4294
:1053700000D378E6C1E7174B29699942AFD1079A64
:10538000ADE7FFF7ABFB021E00D1BEE55846137830
:105390000EA900F0EDF8C9E52189FFF761F8021EBA
:1053A000F4D1B2E5022A0FD0FFF79AFB021ECAD150
:1053B000ABE5FFF74DF8021E00D1A6E512235846D3
:1053C0000EA900F0D5F8B1E5FFF746F8021EBAD1F4
:1053D0009BE5C046295A0010F8B557464E46DE46B2
:1053E00045460C00E0B516001F00002A3CD0702393
:1053F00098461E4B00259B461D4B9A461AE05B467D
:105400001B78200099465346997800F0BDFC00288F
:105410001CD021004846FFF755FA002816D0A37883
:10542000DA09012A19D00A9A013513702378E41891
:10543000B54219DA6378052B08D1E3789B079B0FF7
:10544000BB4203D14246A3781A42D8D00020F0BC18
:10545000BB46B246A946A046F8BD0B9A013513706B
:105460002378E418B542E5DB0120F0E77410002052
:10547000B8140020702270B58B780C001A4201D04D
:10548000002070BD064B20001D78064B997800F077
:105490007BFC0028F4D021002800FFF713FAF0E786
:1054A00074100020B81400200B007F2010B51840A5
:1054B000DB0934334000044AC018044B1168C0189B
:1054C00000F01EFC10BDC0460C150020B8140020D2
:1054D0000B007F2010B51840DB0934334000044A2C
:1054E000C018044B1168C01800F032FC10BDC04653
:1054F0000C150020B814002070B57F240F480C4014
:1055000064000419CD09641930342079C00701D52D
:10551000002070BD012625790948354300782571A2
:10552000FFF750FA0028F4D1012223799343237125
:105530002379033293432371EAE7C046B81400206D
:105540007410002070B5094C0600082220000D00E0
:10555000FCF7C0FE00238021E360A3602B783000BD
:10556000994300220023FFF7C7FF70BD9814002065
:10557000F8B5CE4647469046254E80B5814608226E
:1055800030000D001F00FCF7A5FE4346B36000236A
:10559000F381EC79AB7924021C43231CBC4200D973
:1055A0003B1C9FB2B381002C0DD0002F17D0424678
:1055B000002A2BD0402F1BD89FB233787F2B1CD8CA
:1055C0000021144A0FE080212B780022994348469D
:1055D0000023FFF791FFC0BCB946B046F8BD7F235A
:1055E0000022317899433B004846FFF785FFF2E7F8
:1055F00040239FB233787F2BE2D9064C3A004146D4
:105600002000FCF767FE80212200ECE70020E2E7A3
:10561000981400205814002010B5142200210248CC
:10562000FCF752FE10BDC04698140020014B1861D3
:105630007047C0469814002010B5054C01000822A0
:105640002000FCF747FE0023A360E36010BDC046C6
:105650009814002070B5384C1D0023780600DA0934
:10566000C9098A4210D00020002D00D070BD210051
:105670003000FFF719F92369002B03D02200032122
:10568000300098470120F1E77F2B06D8A06800285A
:1056900034D02A002949FCF71DFEE289A16852197D
:1056A000E38892B24919E281A160934214D03F2D60
:1056B00012D9A389981A051C80B240282AD82078CC
:1056C000ADB27F2828D800219A4232D01B4A2B0045
:1056D0003000FFF711FFC9E72369002B05D0220036
:1056E00002213000984700280AD080212378002228
:1056F000994330000023FFF7FFFEB7E70020B5E72E
:1057000000213000FFF770F930008021FFF76CF9BD
:105710000120ABE74025D2E79A4207D0074C2A0088
:105720002000FCF7D7FD80212200D0E78021002255
:10573000CDE70022CBE7C046981400205814002083
:1057400070B50400FFF7D6F9002800D170BDFFF74F
:10575000D9F90028FAD1C8236343124DEE18F17825
:105760000029F3D010335D19280000F0B9FB3F2861
:10577000ECD90020F178FFF797FE0028E6D028004A
:1057800000F0AEFBF1783F2807D9074BE201D218B1
:1057900000204023FFF7B0FED8E70020FFF798FE77
:1057A000D4E7C046901300200C13002010B504006D
:1057B000FFF7A0F9002801D1002010BDFFF7A2F9E2
:1057C0000028F9D1C8226243024B01309B181B7993
:1057D0001840F2E790130020C82310B54343024855
:1057E000181800F05FFB10BDA0130020F8B5C82406
:1057F000802344431C4F103405003C195B029A423D
:1058000000D31A4A200092B200F0CEFB0600FFF748
:1058100071F9002801D13000F8BDFFF773F90028B5
:10582000F9D1C8236B43FF18FB78002BF3D020007D
:1058300000F056FB3F28EED90020F978FFF734FE40
:105840000028E8D0200000F04BFBF9783F2807D96A
:10585000074BEA01D21800204023FFF74DFEDAE79C
:105860000020FFF735FED6E790130020FFFF000071
:105870000C130020F8B50400FFF73CF9002801D113
:105880000020F8BDFFF73EF90028F9D1C82565438F
:105890002E00134F2436F619300000F003FB0028C9
:1058A000EED07F190020B978FFF7FEFD0028E7D081
:1058B0000C4DE401651929004022300000F074FB12
:1058C000B978041E08D003002A000020FFF714FE58
:1058D0000028D5D02000D4E70020FFF7F9FDCFE75E
:1058E000901300204C13002070B5C82444430C4B87
:1058F0000500E41880235B029A4200D3094A200085
:1059000092B200F017FC0600200000F0CBFA3F280E
:1059100001D8300070BD2800FFF7ACFFF9E7C046A2
:10592000B4130020FFFF0000C82310B54343024812
:10593000181800F0D5FA10BDB4130020F0B50025FA
:10594000184C83B0C82200212000FCF7BDFC164B88
:1059500021001D70FF236371E1235B02A36020001F
:1059600008234022A37338310095073B103000F024
:1059700063FA27000123210020002600402278310D
:105980000093B837243000F057FAC0363800FBF7E0
:105990004BF83000FBF748F8E56127622663656342
:1059A00003B0F0BD901300208C1300200A4A116B45
:1059B000136A00290CD0002B07D00023D361536356
:1059C0001363002313620120704753631363FAE7E4
:1059D000002BF8D0D161F4E79013002070B50F4C84
:1059E000052200212000FCF76FFC0D4D2B78DA0713
:1059F00007D50C4C9B070CD50121200000F076FC4C
:105A000070BD2000103000F051FC2B78054C9B0736
:105A1000F2D4200000F04AFCEEE7C04690130020CC
:105A20008C130020B4130020F0B54B79060083B02E
:105A3000022B02D18B79022B03D00025280003B062
:105A4000F0BD204FBB78002BF7D18B7809253B7038
:105A50000C780C196378242B07D00CE02378E41819
:105A60005D196378ADB2242B05D19542F6D900209B
:105A7000FFF766FEE2E71A00052B15D0042AF6D1DF
:105A800063790A2BF3D1104B2778019301330093EC
:105A900030000223E119023AFFF79EFC0028CCD027
:105AA0000E35ED19ADB2E2E721003000FFF7E2FC60
:105AB0000028C2D0A3787B7023785D19E41862783F
:105AC000ADB2DBE79013002092130020F8B56023FD
:105AD00014001278050013400020202B07D1304A13
